{
  "_format": "hh-sol-artifact-1",
  "contractName": "KuniSaru",
  "sourceName": "contracts/nfts/KuniSaru.sol",
  "abi": [
    {
      "inputs": [],
      "stateMutability": "nonpayable",
      "type": "constructor"
    },
    {
      "anonymous": false,
      "inputs": [
        {
          "indexed": true,
          "internalType": "address",
          "name": "owner",
          "type": "address"
        },
        {
          "indexed": true,
          "internalType": "address",
          "name": "approved",
          "type": "address"
        },
        {
          "indexed": true,
          "internalType": "uint256",
          "name": "tokenId",
          "type": "uint256"
        }
      ],
      "name": "Approval",
      "type": "event"
    },
    {
      "anonymous": false,
      "inputs": [
        {
          "indexed": true,
          "internalType": "address",
          "name": "owner",
          "type": "address"
        },
        {
          "indexed": true,
          "internalType": "address",
          "name": "operator",
          "type": "address"
        },
        {
          "indexed": false,
          "internalType": "bool",
          "name": "approved",
          "type": "bool"
        }
      ],
      "name": "ApprovalForAll",
      "type": "event"
    },
    {
      "anonymous": false,
      "inputs": [
        {
          "indexed": true,
          "internalType": "address",
          "name": "previousOwner",
          "type": "address"
        },
        {
          "indexed": true,
          "internalType": "address",
          "name": "newOwner",
          "type": "address"
        }
      ],
      "name": "OwnershipTransferred",
      "type": "event"
    },
    {
      "anonymous": false,
      "inputs": [
        {
          "indexed": false,
          "internalType": "address",
          "name": "account",
          "type": "address"
        }
      ],
      "name": "Paused",
      "type": "event"
    },
    {
      "anonymous": false,
      "inputs": [
        {
          "indexed": true,
          "internalType": "address",
          "name": "from",
          "type": "address"
        },
        {
          "indexed": true,
          "internalType": "address",
          "name": "to",
          "type": "address"
        },
        {
          "indexed": true,
          "internalType": "uint256",
          "name": "tokenId",
          "type": "uint256"
        }
      ],
      "name": "Transfer",
      "type": "event"
    },
    {
      "anonymous": false,
      "inputs": [
        {
          "indexed": false,
          "internalType": "address",
          "name": "account",
          "type": "address"
        }
      ],
      "name": "Unpaused",
      "type": "event"
    },
    {
      "inputs": [
        {
          "internalType": "address",
          "name": "to",
          "type": "address"
        },
        {
          "internalType": "uint256",
          "name": "tokenId",
          "type": "uint256"
        }
      ],
      "name": "approve",
      "outputs": [],
      "stateMutability": "nonpayable",
      "type": "function"
    },
    {
      "inputs": [
        {
          "internalType": "address",
          "name": "owner",
          "type": "address"
        }
      ],
      "name": "balanceOf",
      "outputs": [
        {
          "internalType": "uint256",
          "name": "",
          "type": "uint256"
        }
      ],
      "stateMutability": "view",
      "type": "function"
    },
    {
      "inputs": [
        {
          "internalType": "uint256",
          "name": "tokenId",
          "type": "uint256"
        }
      ],
      "name": "getApproved",
      "outputs": [
        {
          "internalType": "address",
          "name": "",
          "type": "address"
        }
      ],
      "stateMutability": "view",
      "type": "function"
    },
    {
      "inputs": [
        {
          "internalType": "address",
          "name": "owner",
          "type": "address"
        },
        {
          "internalType": "address",
          "name": "operator",
          "type": "address"
        }
      ],
      "name": "isApprovedForAll",
      "outputs": [
        {
          "internalType": "bool",
          "name": "",
          "type": "bool"
        }
      ],
      "stateMutability": "view",
      "type": "function"
    },
    {
      "inputs": [],
      "name": "name",
      "outputs": [
        {
          "internalType": "string",
          "name": "",
          "type": "string"
        }
      ],
      "stateMutability": "view",
      "type": "function"
    },
    {
      "inputs": [],
      "name": "owner",
      "outputs": [
        {
          "internalType": "address",
          "name": "",
          "type": "address"
        }
      ],
      "stateMutability": "view",
      "type": "function"
    },
    {
      "inputs": [
        {
          "internalType": "uint256",
          "name": "tokenId",
          "type": "uint256"
        }
      ],
      "name": "ownerOf",
      "outputs": [
        {
          "internalType": "address",
          "name": "",
          "type": "address"
        }
      ],
      "stateMutability": "view",
      "type": "function"
    },
    {
      "inputs": [],
      "name": "pause",
      "outputs": [],
      "stateMutability": "nonpayable",
      "type": "function"
    },
    {
      "inputs": [],
      "name": "paused",
      "outputs": [
        {
          "internalType": "bool",
          "name": "",
          "type": "bool"
        }
      ],
      "stateMutability": "view",
      "type": "function"
    },
    {
      "inputs": [],
      "name": "renounceOwnership",
      "outputs": [],
      "stateMutability": "nonpayable",
      "type": "function"
    },
    {
      "inputs": [
        {
          "internalType": "address",
          "name": "to",
          "type": "address"
        }
      ],
      "name": "safeMint",
      "outputs": [],
      "stateMutability": "nonpayable",
      "type": "function"
    },
    {
      "inputs": [
        {
          "internalType": "address",
          "name": "from",
          "type": "address"
        },
        {
          "internalType": "address",
          "name": "to",
          "type": "address"
        },
        {
          "internalType": "uint256",
          "name": "tokenId",
          "type": "uint256"
        }
      ],
      "name": "safeTransferFrom",
      "outputs": [],
      "stateMutability": "nonpayable",
      "type": "function"
    },
    {
      "inputs": [
        {
          "internalType": "address",
          "name": "from",
          "type": "address"
        },
        {
          "internalType": "address",
          "name": "to",
          "type": "address"
        },
        {
          "internalType": "uint256",
          "name": "tokenId",
          "type": "uint256"
        },
        {
          "internalType": "bytes",
          "name": "_data",
          "type": "bytes"
        }
      ],
      "name": "safeTransferFrom",
      "outputs": [],
      "stateMutability": "nonpayable",
      "type": "function"
    },
    {
      "inputs": [
        {
          "internalType": "address",
          "name": "operator",
          "type": "address"
        },
        {
          "internalType": "bool",
          "name": "approved",
          "type": "bool"
        }
      ],
      "name": "setApprovalForAll",
      "outputs": [],
      "stateMutability": "nonpayable",
      "type": "function"
    },
    {
      "inputs": [
        {
          "internalType": "string",
          "name": "_uri",
          "type": "string"
        }
      ],
      "name": "setBaseUrl",
      "outputs": [],
      "stateMutability": "nonpayable",
      "type": "function"
    },
    {
      "inputs": [
        {
          "internalType": "bytes4",
          "name": "interfaceId",
          "type": "bytes4"
        }
      ],
      "name": "supportsInterface",
      "outputs": [
        {
          "internalType": "bool",
          "name": "",
          "type": "bool"
        }
      ],
      "stateMutability": "view",
      "type": "function"
    },
    {
      "inputs": [],
      "name": "symbol",
      "outputs": [
        {
          "internalType": "string",
          "name": "",
          "type": "string"
        }
      ],
      "stateMutability": "view",
      "type": "function"
    },
    {
      "inputs": [
        {
          "internalType": "uint256",
          "name": "index",
          "type": "uint256"
        }
      ],
      "name": "tokenByIndex",
      "outputs": [
        {
          "internalType": "uint256",
          "name": "",
          "type": "uint256"
        }
      ],
      "stateMutability": "view",
      "type": "function"
    },
    {
      "inputs": [
        {
          "internalType": "address",
          "name": "owner",
          "type": "address"
        },
        {
          "internalType": "uint256",
          "name": "index",
          "type": "uint256"
        }
      ],
      "name": "tokenOfOwnerByIndex",
      "outputs": [
        {
          "internalType": "uint256",
          "name": "",
          "type": "uint256"
        }
      ],
      "stateMutability": "view",
      "type": "function"
    },
    {
      "inputs": [
        {
          "internalType": "uint256",
          "name": "tokenId",
          "type": "uint256"
        }
      ],
      "name": "tokenURI",
      "outputs": [
        {
          "internalType": "string",
          "name": "",
          "type": "string"
        }
      ],
      "stateMutability": "view",
      "type": "function"
    },
    {
      "inputs": [],
      "name": "totalSupply",
      "outputs": [
        {
          "internalType": "uint256",
          "name": "",
          "type": "uint256"
        }
      ],
      "stateMutability": "view",
      "type": "function"
    },
    {
      "inputs": [
        {
          "internalType": "address",
          "name": "from",
          "type": "address"
        },
        {
          "internalType": "address",
          "name": "to",
          "type": "address"
        },
        {
          "internalType": "uint256",
          "name": "tokenId",
          "type": "uint256"
        }
      ],
      "name": "transferFrom",
      "outputs": [],
      "stateMutability": "nonpayable",
      "type": "function"
    },
    {
      "inputs": [
        {
          "internalType": "address",
          "name": "newOwner",
          "type": "address"
        }
      ],
      "name": "transferOwnership",
      "outputs": [],
      "stateMutability": "nonpayable",
      "type": "function"
    },
    {
      "inputs": [],
      "name": "unpause",
      "outputs": [],
      "stateMutability": "nonpayable",
      "type": "function"
    }
  ],
  "bytecode": "0x60806040523480156200001157600080fd5b5060408051808201825260098152684b756e69205361727560b81b6020808301918252835180850190945260048452634b554e4960e01b9084015281519192916200005f916000916200010d565b508051620000759060019060208401906200010d565b5050600a805460ff19169055506200008d33620000aa565b620000a4600b6200010460201b62000b291760201c565b620001f0565b600a80546001600160a01b03838116610100818102610100600160a81b031985161790945560405193909204169182907f8be0079c531659141344cd1fd0a4f28419497f9722a3daafe3b4186f6b6457e090600090a35050565b80546001019055565b8280546200011b90620001b3565b90600052602060002090601f0160209004810192826200013f57600085556200018a565b82601f106200015a57805160ff19168380011785556200018a565b828001600101855582156200018a579182015b828111156200018a5782518255916020019190600101906200016d565b50620001989291506200019c565b5090565b5b808211156200019857600081556001016200019d565b600181811c90821680620001c857607f821691505b60208210811415620001ea57634e487b7160e01b600052602260045260246000fd5b50919050565b611db480620002006000396000f3fe608060405234801561001057600080fd5b50600436106101585760003560e01c80636352211e116100c3578063a22cb4651161007c578063a22cb465146102b2578063b88d4fde146102c5578063c7c3268b146102d8578063c87b56dd146102eb578063e985e9c5146102fe578063f2fde38b1461033a57600080fd5b80636352211e1461025e57806370a0823114610271578063715018a6146102845780638456cb591461028c5780638da5cb5b1461029457806395d89b41146102aa57600080fd5b80632f745c59116101155780632f745c59146101ff5780633f4ba83a1461021257806340d097c31461021a57806342842e0e1461022d5780634f6ccce7146102405780635c975abb1461025357600080fd5b806301ffc9a71461015d57806306fdde0314610185578063081812fc1461019a578063095ea7b3146101c557806318160ddd146101da57806323b872dd146101ec575b600080fd5b61017061016b366004611a02565b61034d565b60405190151581526020015b60405180910390f35b61018d61035e565b60405161017c9190611b36565b6101ad6101a8366004611a85565b6103f0565b6040516001600160a01b03909116815260200161017c565b6101d86101d33660046119d8565b61048a565b005b6008545b60405190815260200161017c565b6101d86101fa3660046118e4565b6105a0565b6101de61020d3660046119d8565b6105d1565b6101d8610667565b6101d8610228366004611896565b6106a1565b6101d861023b3660046118e4565b6106fa565b6101de61024e366004611a85565b610715565b600a5460ff16610170565b6101ad61026c366004611a85565b6107a8565b6101de61027f366004611896565b61081f565b6101d86108a6565b6101d86108e0565b600a5461010090046001600160a01b03166101ad565b61018d610918565b6101d86102c036600461199c565b610927565b6101d86102d3366004611920565b610932565b6101d86102e6366004611a3c565b61096a565b61018d6102f9366004611a85565b6109ad565b61017061030c3660046118b1565b6001600160a01b03918216600090815260056020908152604080832093909416825291909152205460ff1690565b6101d8610348366004611896565b610a88565b600061035882610b32565b92915050565b60606000805461036d90611c90565b80601f016020809104026020016040519081016040528092919081815260200182805461039990611c90565b80156103e65780601f106103bb576101008083540402835291602001916103e6565b820191906000526020600020905b8154815290600101906020018083116103c957829003601f168201915b5050505050905090565b6000818152600260205260408120546001600160a01b031661046e5760405162461bcd60e51b815260206004820152602c60248201527f4552433732313a20617070726f76656420717565727920666f72206e6f6e657860448201526b34b9ba32b73a103a37b5b2b760a11b60648201526084015b60405180910390fd5b506000908152600460205260409020546001600160a01b031690565b6000610495826107a8565b9050806001600160a01b0316836001600160a01b031614156105035760405162461bcd60e51b815260206004820152602160248201527f4552433732313a20617070726f76616c20746f2063757272656e74206f776e656044820152603960f91b6064820152608401610465565b336001600160a01b038216148061051f575061051f813361030c565b6105915760405162461bcd60e51b815260206004820152603860248201527f4552433732313a20617070726f76652063616c6c6572206973206e6f74206f7760448201527f6e6572206e6f7220617070726f76656420666f7220616c6c00000000000000006064820152608401610465565b61059b8383610b57565b505050565b6105aa3382610bc5565b6105c65760405162461bcd60e51b815260040161046590611bd0565b61059b838383610cbc565b60006105dc8361081f565b821061063e5760405162461bcd60e51b815260206004820152602b60248201527f455243373231456e756d657261626c653a206f776e657220696e646578206f7560448201526a74206f6620626f756e647360a81b6064820152608401610465565b506001600160a01b03919091166000908152600660209081526040808320938352929052205490565b600a546001600160a01b036101009091041633146106975760405162461bcd60e51b815260040161046590611b9b565b61069f610e63565b565b600a546001600160a01b036101009091041633146106d15760405162461bcd60e51b815260040161046590611b9b565b60006106dc600b5490565b90506106ec600b80546001019055565b6106f68282610ef6565b5050565b61059b83838360405180602001604052806000815250610932565b600061072060085490565b82106107835760405162461bcd60e51b815260206004820152602c60248201527f455243373231456e756d657261626c653a20676c6f62616c20696e646578206f60448201526b7574206f6620626f756e647360a01b6064820152608401610465565b6008828154811061079657610796611d3c565b90600052602060002001549050919050565b6000818152600260205260408120546001600160a01b0316806103585760405162461bcd60e51b815260206004820152602960248201527f4552433732313a206f776e657220717565727920666f72206e6f6e657869737460448201526832b73a103a37b5b2b760b91b6064820152608401610465565b60006001600160a01b03821661088a5760405162461bcd60e51b815260206004820152602a60248201527f4552433732313a2062616c616e636520717565727920666f7220746865207a65604482015269726f206164647265737360b01b6064820152608401610465565b506001600160a01b031660009081526003602052604090205490565b600a546001600160a01b036101009091041633146108d65760405162461bcd60e51b815260040161046590611b9b565b61069f6000610f10565b600a546001600160a01b036101009091041633146109105760405162461bcd60e51b815260040161046590611b9b565b61069f610f6a565b60606001805461036d90611c90565b6106f6338383610fe5565b61093c3383610bc5565b6109585760405162461bcd60e51b815260040161046590611bd0565b610964848484846110b4565b50505050565b600a546001600160a01b0361010090910416331461099a5760405162461bcd60e51b815260040161046590611b9b565b80516106f690600c90602084019061176b565b6000818152600260205260409020546060906001600160a01b0316610a2c5760405162461bcd60e51b815260206004820152602f60248201527f4552433732314d657461646174613a2055524920717565727920666f72206e6f60448201526e3732bc34b9ba32b73a103a37b5b2b760891b6064820152608401610465565b6000610a366110e7565b90506000815111610a565760405180602001604052806000815250610a81565b80610a60846110f6565b604051602001610a71929190611aca565b6040516020818303038152906040525b9392505050565b600a546001600160a01b03610100909104163314610ab85760405162461bcd60e51b815260040161046590611b9b565b6001600160a01b038116610b1d5760405162461bcd60e51b815260206004820152602660248201527f4f776e61626c653a206e6577206f776e657220697320746865207a65726f206160448201526564647265737360d01b6064820152608401610465565b610b2681610f10565b50565b80546001019055565b60006001600160e01b0319821663780e9d6360e01b14806103585750610358826111f4565b600081815260046020526040902080546001600160a01b0319166001600160a01b0384169081179091558190610b8c826107a8565b6001600160a01b03167f8c5be1e5ebec7d5bd14f71427d1e84f3dd0314c0f7b2291e5b200ac8c7c3b92560405160405180910390a45050565b6000818152600260205260408120546001600160a01b0316610c3e5760405162461bcd60e51b815260206004820152602c60248201527f4552433732313a206f70657261746f7220717565727920666f72206e6f6e657860448201526b34b9ba32b73a103a37b5b2b760a11b6064820152608401610465565b6000610c49836107a8565b9050806001600160a01b0316846001600160a01b03161480610c845750836001600160a01b0316610c79846103f0565b6001600160a01b0316145b80610cb457506001600160a01b0380821660009081526005602090815260408083209388168352929052205460ff165b949350505050565b826001600160a01b0316610ccf826107a8565b6001600160a01b031614610d335760405162461bcd60e51b815260206004820152602560248201527f4552433732313a207472616e736665722066726f6d20696e636f72726563742060448201526437bbb732b960d91b6064820152608401610465565b6001600160a01b038216610d955760405162461bcd60e51b8152602060048201526024808201527f4552433732313a207472616e7366657220746f20746865207a65726f206164646044820152637265737360e01b6064820152608401610465565b610da0838383611244565b610dab600082610b57565b6001600160a01b0383166000908152600360205260408120805460019290610dd4908490611c4d565b90915550506001600160a01b0382166000908152600360205260408120805460019290610e02908490611c21565b909155505060008181526002602052604080822080546001600160a01b0319166001600160a01b0386811691821790925591518493918716917fddf252ad1be2c89b69c2b068fc378daa952ba7f163c4a11628f55a4df523b3ef91a4505050565b600a5460ff16610eac5760405162461bcd60e51b815260206004820152601460248201527314185d5cd8589b194e881b9bdd081c185d5cd95960621b6044820152606401610465565b600a805460ff191690557f5db9ee0a495bf2e6ff9c91a7834c1ba4fdd244a5e8aa4e537bd38aeae4b073aa335b6040516001600160a01b03909116815260200160405180910390a1565b6106f6828260405180602001604052806000815250611295565b600a80546001600160a01b03838116610100818102610100600160a81b031985161790945560405193909204169182907f8be0079c531659141344cd1fd0a4f28419497f9722a3daafe3b4186f6b6457e090600090a35050565b600a5460ff1615610fb05760405162461bcd60e51b815260206004820152601060248201526f14185d5cd8589b194e881c185d5cd95960821b6044820152606401610465565b600a805460ff191660011790557f62e78cea01bee320cd4e420270b5ea74000d11b0c9f74754ebdbfc544b05a258610ed93390565b816001600160a01b0316836001600160a01b031614156110475760405162461bcd60e51b815260206004820152601960248201527f4552433732313a20617070726f766520746f2063616c6c6572000000000000006044820152606401610465565b6001600160a01b03838116600081815260056020908152604080832094871680845294825291829020805460ff191686151590811790915591519182527f17307eab39ab6107e8899845ad3d59bd9653f200f220920489ca2b5937696c31910160405180910390a3505050565b6110bf848484610cbc565b6110cb848484846112c8565b6109645760405162461bcd60e51b815260040161046590611b49565b6060600c805461036d90611c90565b60608161111a5750506040805180820190915260018152600360fc1b602082015290565b8160005b8115611144578061112e81611ccb565b915061113d9050600a83611c39565b915061111e565b60008167ffffffffffffffff81111561115f5761115f611d52565b6040519080825280601f01601f191660200182016040528015611189576020820181803683370190505b5090505b8415610cb45761119e600183611c4d565b91506111ab600a86611ce6565b6111b6906030611c21565b60f81b8183815181106111cb576111cb611d3c565b60200101906001600160f81b031916908160001a9053506111ed600a86611c39565b945061118d565b60006001600160e01b031982166380ac58cd60e01b148061122557506001600160e01b03198216635b5e139f60e01b145b8061035857506301ffc9a760e01b6001600160e01b0319831614610358565b600a5460ff161561128a5760405162461bcd60e51b815260206004820152601060248201526f14185d5cd8589b194e881c185d5cd95960821b6044820152606401610465565b61059b8383836113d5565b61129f838361148d565b6112ac60008484846112c8565b61059b5760405162461bcd60e51b815260040161046590611b49565b60006001600160a01b0384163b156113ca57604051630a85bd0160e11b81526001600160a01b0385169063150b7a029061130c903390899088908890600401611af9565b602060405180830381600087803b15801561132657600080fd5b505af1925050508015611356575060408051601f3d908101601f1916820190925261135391810190611a1f565b60015b6113b0573d808015611384576040519150601f19603f3d011682016040523d82523d6000602084013e611389565b606091505b5080516113a85760405162461bcd60e51b815260040161046590611b49565b805181602001fd5b6001600160e01b031916630a85bd0160e11b149050610cb4565b506001949350505050565b6001600160a01b0383166114305761142b81600880546000838152600960205260408120829055600182018355919091527ff3f7a9fe364faab93b216da50a3214154f22a0a2b415b23a84c8169e8b636ee30155565b611453565b816001600160a01b0316836001600160a01b0316146114535761145383826115db565b6001600160a01b03821661146a5761059b81611678565b826001600160a01b0316826001600160a01b03161461059b5761059b8282611727565b6001600160a01b0382166114e35760405162461bcd60e51b815260206004820181905260248201527f4552433732313a206d696e7420746f20746865207a65726f20616464726573736044820152606401610465565b6000818152600260205260409020546001600160a01b0316156115485760405162461bcd60e51b815260206004820152601c60248201527f4552433732313a20746f6b656e20616c7265616479206d696e746564000000006044820152606401610465565b61155460008383611244565b6001600160a01b038216600090815260036020526040812080546001929061157d908490611c21565b909155505060008181526002602052604080822080546001600160a01b0319166001600160a01b03861690811790915590518392907fddf252ad1be2c89b69c2b068fc378daa952ba7f163c4a11628f55a4df523b3ef908290a45050565b600060016115e88461081f565b6115f29190611c4d565b600083815260076020526040902054909150808214611645576001600160a01b03841660009081526006602090815260408083208584528252808320548484528184208190558352600790915290208190555b5060009182526007602090815260408084208490556001600160a01b039094168352600681528383209183525290812055565b60085460009061168a90600190611c4d565b600083815260096020526040812054600880549394509092849081106116b2576116b2611d3c565b9060005260206000200154905080600883815481106116d3576116d3611d3c565b600091825260208083209091019290925582815260099091526040808220849055858252812055600880548061170b5761170b611d26565b6001900381819060005260206000200160009055905550505050565b60006117328361081f565b6001600160a01b039093166000908152600660209081526040808320868452825280832085905593825260079052919091209190915550565b82805461177790611c90565b90600052602060002090601f01602090048101928261179957600085556117df565b82601f106117b257805160ff19168380011785556117df565b828001600101855582156117df579182015b828111156117df5782518255916020019190600101906117c4565b506117eb9291506117ef565b5090565b5b808211156117eb57600081556001016117f0565b600067ffffffffffffffff8084111561181f5761181f611d52565b604051601f8501601f19908116603f0116810190828211818310171561184757611847611d52565b8160405280935085815286868601111561186057600080fd5b858560208301376000602087830101525050509392505050565b80356001600160a01b038116811461189157600080fd5b919050565b6000602082840312156118a857600080fd5b610a818261187a565b600080604083850312156118c457600080fd5b6118cd8361187a565b91506118db6020840161187a565b90509250929050565b6000806000606084860312156118f957600080fd5b6119028461187a565b92506119106020850161187a565b9150604084013590509250925092565b6000806000806080858703121561193657600080fd5b61193f8561187a565b935061194d6020860161187a565b925060408501359150606085013567ffffffffffffffff81111561197057600080fd5b8501601f8101871361198157600080fd5b61199087823560208401611804565b91505092959194509250565b600080604083850312156119af57600080fd5b6119b88361187a565b9150602083013580151581146119cd57600080fd5b809150509250929050565b600080604083850312156119eb57600080fd5b6119f48361187a565b946020939093013593505050565b600060208284031215611a1457600080fd5b8135610a8181611d68565b600060208284031215611a3157600080fd5b8151610a8181611d68565b600060208284031215611a4e57600080fd5b813567ffffffffffffffff811115611a6557600080fd5b8201601f81018413611a7657600080fd5b610cb484823560208401611804565b600060208284031215611a9757600080fd5b5035919050565b60008151808452611ab6816020860160208601611c64565b601f01601f19169290920160200192915050565b60008351611adc818460208801611c64565b835190830190611af0818360208801611c64565b01949350505050565b6001600160a01b0385811682528416602082015260408101839052608060608201819052600090611b2c90830184611a9e565b9695505050505050565b602081526000610a816020830184611a9e565b60208082526032908201527f4552433732313a207472616e7366657220746f206e6f6e20455243373231526560408201527131b2b4bb32b91034b6b83632b6b2b73a32b960711b606082015260800190565b6020808252818101527f4f776e61626c653a2063616c6c6572206973206e6f7420746865206f776e6572604082015260600190565b60208082526031908201527f4552433732313a207472616e736665722063616c6c6572206973206e6f74206f6040820152701ddb995c881b9bdc88185c1c1c9bdd9959607a1b606082015260800190565b60008219821115611c3457611c34611cfa565b500190565b600082611c4857611c48611d10565b500490565b600082821015611c5f57611c5f611cfa565b500390565b60005b83811015611c7f578181015183820152602001611c67565b838111156109645750506000910152565b600181811c90821680611ca457607f821691505b60208210811415611cc557634e487b7160e01b600052602260045260246000fd5b50919050565b6000600019821415611cdf57611cdf611cfa565b5060010190565b600082611cf557611cf5611d10565b500690565b634e487b7160e01b600052601160045260246000fd5b634e487b7160e01b600052601260045260246000fd5b634e487b7160e01b600052603160045260246000fd5b634e487b7160e01b600052603260045260246000fd5b634e487b7160e01b600052604160045260246000fd5b6001600160e01b031981168114610b2657600080fdfea2646970667358221220763e2df7f0185c2e31befe32d27d70038cb8a43c2d1fea8348f75f79d3c491b064736f6c63430008060033",
  "linkReferences": {},
  "deployedLinkReferences": {}
}