{
  "_format": "hh-sol-artifact-1",
  "contractName": "KuniItem",
  "sourceName": "contracts/nfts/KuniItem.sol",
  "abi": [
    {
      "inputs": [],
      "stateMutability": "nonpayable",
      "type": "constructor"
    },
    {
      "anonymous": false,
      "inputs": [
        {
          "indexed": true,
          "internalType": "address",
          "name": "owner",
          "type": "address"
        },
        {
          "indexed": true,
          "internalType": "address",
          "name": "approved",
          "type": "address"
        },
        {
          "indexed": true,
          "internalType": "uint256",
          "name": "tokenId",
          "type": "uint256"
        }
      ],
      "name": "Approval",
      "type": "event"
    },
    {
      "anonymous": false,
      "inputs": [
        {
          "indexed": true,
          "internalType": "address",
          "name": "owner",
          "type": "address"
        },
        {
          "indexed": true,
          "internalType": "address",
          "name": "operator",
          "type": "address"
        },
        {
          "indexed": false,
          "internalType": "bool",
          "name": "approved",
          "type": "bool"
        }
      ],
      "name": "ApprovalForAll",
      "type": "event"
    },
    {
      "anonymous": false,
      "inputs": [
        {
          "indexed": true,
          "internalType": "address",
          "name": "owner",
          "type": "address"
        },
        {
          "indexed": false,
          "internalType": "uint256",
          "name": "tokenId",
          "type": "uint256"
        }
      ],
      "name": "Mint",
      "type": "event"
    },
    {
      "anonymous": false,
      "inputs": [
        {
          "indexed": false,
          "internalType": "address",
          "name": "account",
          "type": "address"
        }
      ],
      "name": "Paused",
      "type": "event"
    },
    {
      "anonymous": false,
      "inputs": [
        {
          "indexed": true,
          "internalType": "bytes32",
          "name": "role",
          "type": "bytes32"
        },
        {
          "indexed": true,
          "internalType": "bytes32",
          "name": "previousAdminRole",
          "type": "bytes32"
        },
        {
          "indexed": true,
          "internalType": "bytes32",
          "name": "newAdminRole",
          "type": "bytes32"
        }
      ],
      "name": "RoleAdminChanged",
      "type": "event"
    },
    {
      "anonymous": false,
      "inputs": [
        {
          "indexed": true,
          "internalType": "bytes32",
          "name": "role",
          "type": "bytes32"
        },
        {
          "indexed": true,
          "internalType": "address",
          "name": "account",
          "type": "address"
        },
        {
          "indexed": true,
          "internalType": "address",
          "name": "sender",
          "type": "address"
        }
      ],
      "name": "RoleGranted",
      "type": "event"
    },
    {
      "anonymous": false,
      "inputs": [
        {
          "indexed": true,
          "internalType": "bytes32",
          "name": "role",
          "type": "bytes32"
        },
        {
          "indexed": true,
          "internalType": "address",
          "name": "account",
          "type": "address"
        },
        {
          "indexed": true,
          "internalType": "address",
          "name": "sender",
          "type": "address"
        }
      ],
      "name": "RoleRevoked",
      "type": "event"
    },
    {
      "anonymous": false,
      "inputs": [
        {
          "indexed": true,
          "internalType": "address",
          "name": "from",
          "type": "address"
        },
        {
          "indexed": true,
          "internalType": "address",
          "name": "to",
          "type": "address"
        },
        {
          "indexed": true,
          "internalType": "uint256",
          "name": "tokenId",
          "type": "uint256"
        }
      ],
      "name": "Transfer",
      "type": "event"
    },
    {
      "anonymous": false,
      "inputs": [
        {
          "indexed": false,
          "internalType": "address",
          "name": "account",
          "type": "address"
        }
      ],
      "name": "Unpaused",
      "type": "event"
    },
    {
      "inputs": [],
      "name": "DEFAULT_ADMIN_ROLE",
      "outputs": [
        {
          "internalType": "bytes32",
          "name": "",
          "type": "bytes32"
        }
      ],
      "stateMutability": "view",
      "type": "function"
    },
    {
      "inputs": [],
      "name": "MINTER_ROLE",
      "outputs": [
        {
          "internalType": "bytes32",
          "name": "",
          "type": "bytes32"
        }
      ],
      "stateMutability": "view",
      "type": "function"
    },
    {
      "inputs": [
        {
          "internalType": "address",
          "name": "to",
          "type": "address"
        },
        {
          "internalType": "uint256",
          "name": "tokenId",
          "type": "uint256"
        }
      ],
      "name": "approve",
      "outputs": [],
      "stateMutability": "nonpayable",
      "type": "function"
    },
    {
      "inputs": [
        {
          "internalType": "address",
          "name": "owner",
          "type": "address"
        }
      ],
      "name": "balanceOf",
      "outputs": [
        {
          "internalType": "uint256",
          "name": "",
          "type": "uint256"
        }
      ],
      "stateMutability": "view",
      "type": "function"
    },
    {
      "inputs": [
        {
          "internalType": "uint256",
          "name": "tokenId",
          "type": "uint256"
        }
      ],
      "name": "burn",
      "outputs": [],
      "stateMutability": "nonpayable",
      "type": "function"
    },
    {
      "inputs": [],
      "name": "currentId",
      "outputs": [
        {
          "internalType": "uint256",
          "name": "",
          "type": "uint256"
        }
      ],
      "stateMutability": "view",
      "type": "function"
    },
    {
      "inputs": [
        {
          "internalType": "uint256",
          "name": "tokenId",
          "type": "uint256"
        }
      ],
      "name": "getApproved",
      "outputs": [
        {
          "internalType": "address",
          "name": "",
          "type": "address"
        }
      ],
      "stateMutability": "view",
      "type": "function"
    },
    {
      "inputs": [
        {
          "internalType": "uint256",
          "name": "tokenId",
          "type": "uint256"
        }
      ],
      "name": "getMeta",
      "outputs": [
        {
          "internalType": "string",
          "name": "name",
          "type": "string"
        },
        {
          "internalType": "uint256",
          "name": "slash",
          "type": "uint256"
        },
        {
          "internalType": "uint256",
          "name": "heavy",
          "type": "uint256"
        },
        {
          "internalType": "uint256",
          "name": "strike",
          "type": "uint256"
        },
        {
          "internalType": "uint256",
          "name": "tech",
          "type": "uint256"
        },
        {
          "internalType": "uint256",
          "name": "magic",
          "type": "uint256"
        },
        {
          "internalType": "uint256",
          "name": "cat",
          "type": "uint256"
        }
      ],
      "stateMutability": "view",
      "type": "function"
    },
    {
      "inputs": [
        {
          "internalType": "bytes32",
          "name": "role",
          "type": "bytes32"
        }
      ],
      "name": "getRoleAdmin",
      "outputs": [
        {
          "internalType": "bytes32",
          "name": "",
          "type": "bytes32"
        }
      ],
      "stateMutability": "view",
      "type": "function"
    },
    {
      "inputs": [
        {
          "internalType": "bytes32",
          "name": "role",
          "type": "bytes32"
        },
        {
          "internalType": "address",
          "name": "account",
          "type": "address"
        }
      ],
      "name": "grantRole",
      "outputs": [],
      "stateMutability": "nonpayable",
      "type": "function"
    },
    {
      "inputs": [
        {
          "internalType": "bytes32",
          "name": "role",
          "type": "bytes32"
        },
        {
          "internalType": "address",
          "name": "account",
          "type": "address"
        }
      ],
      "name": "hasRole",
      "outputs": [
        {
          "internalType": "bool",
          "name": "",
          "type": "bool"
        }
      ],
      "stateMutability": "view",
      "type": "function"
    },
    {
      "inputs": [
        {
          "internalType": "address",
          "name": "owner",
          "type": "address"
        },
        {
          "internalType": "address",
          "name": "operator",
          "type": "address"
        }
      ],
      "name": "isApprovedForAll",
      "outputs": [
        {
          "internalType": "bool",
          "name": "",
          "type": "bool"
        }
      ],
      "stateMutability": "view",
      "type": "function"
    },
    {
      "inputs": [],
      "name": "name",
      "outputs": [
        {
          "internalType": "string",
          "name": "",
          "type": "string"
        }
      ],
      "stateMutability": "view",
      "type": "function"
    },
    {
      "inputs": [
        {
          "internalType": "uint256",
          "name": "tokenId",
          "type": "uint256"
        }
      ],
      "name": "ownerOf",
      "outputs": [
        {
          "internalType": "address",
          "name": "",
          "type": "address"
        }
      ],
      "stateMutability": "view",
      "type": "function"
    },
    {
      "inputs": [],
      "name": "pause",
      "outputs": [],
      "stateMutability": "nonpayable",
      "type": "function"
    },
    {
      "inputs": [],
      "name": "paused",
      "outputs": [
        {
          "internalType": "bool",
          "name": "",
          "type": "bool"
        }
      ],
      "stateMutability": "view",
      "type": "function"
    },
    {
      "inputs": [
        {
          "internalType": "bytes32",
          "name": "role",
          "type": "bytes32"
        },
        {
          "internalType": "address",
          "name": "account",
          "type": "address"
        }
      ],
      "name": "renounceRole",
      "outputs": [],
      "stateMutability": "nonpayable",
      "type": "function"
    },
    {
      "inputs": [
        {
          "internalType": "bytes32",
          "name": "role",
          "type": "bytes32"
        },
        {
          "internalType": "address",
          "name": "account",
          "type": "address"
        }
      ],
      "name": "revokeRole",
      "outputs": [],
      "stateMutability": "nonpayable",
      "type": "function"
    },
    {
      "inputs": [
        {
          "internalType": "address",
          "name": "to",
          "type": "address"
        },
        {
          "internalType": "string",
          "name": "name",
          "type": "string"
        },
        {
          "internalType": "uint256[]",
          "name": "meta",
          "type": "uint256[]"
        }
      ],
      "name": "safeMint",
      "outputs": [],
      "stateMutability": "nonpayable",
      "type": "function"
    },
    {
      "inputs": [
        {
          "internalType": "address",
          "name": "from",
          "type": "address"
        },
        {
          "internalType": "address",
          "name": "to",
          "type": "address"
        },
        {
          "internalType": "uint256",
          "name": "tokenId",
          "type": "uint256"
        }
      ],
      "name": "safeTransferFrom",
      "outputs": [],
      "stateMutability": "nonpayable",
      "type": "function"
    },
    {
      "inputs": [
        {
          "internalType": "address",
          "name": "from",
          "type": "address"
        },
        {
          "internalType": "address",
          "name": "to",
          "type": "address"
        },
        {
          "internalType": "uint256",
          "name": "tokenId",
          "type": "uint256"
        },
        {
          "internalType": "bytes",
          "name": "_data",
          "type": "bytes"
        }
      ],
      "name": "safeTransferFrom",
      "outputs": [],
      "stateMutability": "nonpayable",
      "type": "function"
    },
    {
      "inputs": [
        {
          "internalType": "address",
          "name": "operator",
          "type": "address"
        },
        {
          "internalType": "bool",
          "name": "approved",
          "type": "bool"
        }
      ],
      "name": "setApprovalForAll",
      "outputs": [],
      "stateMutability": "nonpayable",
      "type": "function"
    },
    {
      "inputs": [
        {
          "internalType": "string",
          "name": "_uri",
          "type": "string"
        }
      ],
      "name": "setBaseUrl",
      "outputs": [],
      "stateMutability": "nonpayable",
      "type": "function"
    },
    {
      "inputs": [
        {
          "internalType": "bytes4",
          "name": "interfaceId",
          "type": "bytes4"
        }
      ],
      "name": "supportsInterface",
      "outputs": [
        {
          "internalType": "bool",
          "name": "",
          "type": "bool"
        }
      ],
      "stateMutability": "view",
      "type": "function"
    },
    {
      "inputs": [],
      "name": "symbol",
      "outputs": [
        {
          "internalType": "string",
          "name": "",
          "type": "string"
        }
      ],
      "stateMutability": "view",
      "type": "function"
    },
    {
      "inputs": [
        {
          "internalType": "uint256",
          "name": "index",
          "type": "uint256"
        }
      ],
      "name": "tokenByIndex",
      "outputs": [
        {
          "internalType": "uint256",
          "name": "",
          "type": "uint256"
        }
      ],
      "stateMutability": "view",
      "type": "function"
    },
    {
      "inputs": [
        {
          "internalType": "address",
          "name": "owner",
          "type": "address"
        },
        {
          "internalType": "uint256",
          "name": "index",
          "type": "uint256"
        }
      ],
      "name": "tokenOfOwnerByIndex",
      "outputs": [
        {
          "internalType": "uint256",
          "name": "",
          "type": "uint256"
        }
      ],
      "stateMutability": "view",
      "type": "function"
    },
    {
      "inputs": [
        {
          "internalType": "uint256",
          "name": "tokenId",
          "type": "uint256"
        }
      ],
      "name": "tokenURI",
      "outputs": [
        {
          "internalType": "string",
          "name": "",
          "type": "string"
        }
      ],
      "stateMutability": "view",
      "type": "function"
    },
    {
      "inputs": [],
      "name": "totalSupply",
      "outputs": [
        {
          "internalType": "uint256",
          "name": "",
          "type": "uint256"
        }
      ],
      "stateMutability": "view",
      "type": "function"
    },
    {
      "inputs": [
        {
          "internalType": "address",
          "name": "from",
          "type": "address"
        },
        {
          "internalType": "address",
          "name": "to",
          "type": "address"
        },
        {
          "internalType": "uint256",
          "name": "tokenId",
          "type": "uint256"
        }
      ],
      "name": "transferFrom",
      "outputs": [],
      "stateMutability": "nonpayable",
      "type": "function"
    },
    {
      "inputs": [],
      "name": "unpause",
      "outputs": [],
      "stateMutability": "nonpayable",
      "type": "function"
    }
  ],
  "bytecode": "0x60806040523480156200001157600080fd5b50604051806040016040528060088152602001674b756e694974656d60c01b815250604051806040016040528060088152602001674b554e494954454d60c01b81525081600090805190602001906200006c92919062000173565b5080516200008290600190602084019062000173565b5050600a805460ff19169055506200009c600033620000ce565b620000c87f9f2df0fed2c77648de5860a4cc508cd0818c85b8b8a1ab4ceeef8d981c8956a633620000ce565b62000256565b6000828152600b602090815260408083206001600160a01b038516845290915290205460ff166200016f576000828152600b602090815260408083206001600160a01b03851684529091529020805460ff191660011790556200012e3390565b6001600160a01b0316816001600160a01b0316837f2f8788117e7eff1d82e926ec794901d17c78024a50270940304540a733656f0d60405160405180910390a45b5050565b828054620001819062000219565b90600052602060002090601f016020900481019282620001a55760008555620001f0565b82601f10620001c057805160ff1916838001178555620001f0565b82800160010185558215620001f0579182015b82811115620001f0578251825591602001919060010190620001d3565b50620001fe92915062000202565b5090565b5b80821115620001fe576000815560010162000203565b600181811c908216806200022e57607f821691505b602082108114156200025057634e487b7160e01b600052602260045260246000fd5b50919050565b61270980620002666000396000f3fe608060405234801561001057600080fd5b50600436106101e55760003560e01c80634f6ccce71161010f578063a22cb465116100a2578063d539139311610071578063d53913931461040a578063d547741f14610431578063e00dd16114610444578063e985e9c51461044c57600080fd5b8063a22cb465146103be578063b88d4fde146103d1578063c7c3268b146103e4578063c87b56dd146103f757600080fd5b80638456cb59116100de5780638456cb591461039357806391d148541461039b57806395d89b41146103ae578063a217fddf146103b657600080fd5b80634f6ccce71461034f5780635c975abb146103625780636352211e1461036d57806370a082311461038057600080fd5b8063257e22791161018757806336dac2cc1161015657806336dac2cc146102fb5780633f4ba83a1461032157806342842e0e1461032957806342966c681461033c57600080fd5b8063257e2279146102af5780632f2ff15d146102c25780632f745c59146102d557806336568abe146102e857600080fd5b8063095ea7b3116101c3578063095ea7b31461025257806318160ddd1461026757806323b872dd14610279578063248a9ca31461028c57600080fd5b806301ffc9a7146101ea57806306fdde0314610212578063081812fc14610227575b600080fd5b6101fd6101f8366004612299565b610488565b60405190151581526020015b60405180910390f35b61021a610499565b6040516102099190612415565b61023a61023536600461225d565b61052b565b6040516001600160a01b039091168152602001610209565b610265610260366004612233565b6105c5565b005b6008545b604051908152602001610209565b61026561028736600461205b565b6106db565b61026b61029a36600461225d565b6000908152600b602052604090206001015490565b6102656102bd36600461214f565b61070d565b6102656102d0366004612276565b6108db565b61026b6102e3366004612233565b610901565b6102656102f6366004612276565b610997565b61030e61030936600461225d565b610a15565b6040516102099796959493929190612428565b610265610b4d565b61026561033736600461205b565b610b64565b61026561034a36600461225d565b610b7f565b61026b61035d36600461225d565b610bf6565b600a5460ff166101fd565b61023a61037b36600461225d565b610c89565b61026b61038e36600461200d565b610d00565b610265610d87565b6101fd6103a9366004612276565b610d9b565b61021a610dc6565b61026b600081565b6102656103cc366004612113565b610dd5565b6102656103df366004612097565b610de0565b6102656103f23660046122d3565b610e18565b61021a61040536600461225d565b610e37565b61026b7f9f2df0fed2c77648de5860a4cc508cd0818c85b8b8a1ab4ceeef8d981c8956a681565b61026561043f366004612276565b610f12565b61026b610f38565b6101fd61045a366004612028565b6001600160a01b03918216600090815260056020908152604080832093909416825291909152205460ff1690565b600061049382610f48565b92915050565b6060600080546104a8906125e5565b80601f01602080910402602001604051908101604052809291908181526020018280546104d4906125e5565b80156105215780601f106104f657610100808354040283529160200191610521565b820191906000526020600020905b81548152906001019060200180831161050457829003601f168201915b5050505050905090565b6000818152600260205260408120546001600160a01b03166105a95760405162461bcd60e51b815260206004820152602c60248201527f4552433732313a20617070726f76656420717565727920666f72206e6f6e657860448201526b34b9ba32b73a103a37b5b2b760a11b60648201526084015b60405180910390fd5b506000908152600460205260409020546001600160a01b031690565b60006105d082610c89565b9050806001600160a01b0316836001600160a01b0316141561063e5760405162461bcd60e51b815260206004820152602160248201527f4552433732313a20617070726f76616c20746f2063757272656e74206f776e656044820152603960f91b60648201526084016105a0565b336001600160a01b038216148061065a575061065a813361045a565b6106cc5760405162461bcd60e51b815260206004820152603860248201527f4552433732313a20617070726f76652063616c6c6572206973206e6f74206f7760448201527f6e6572206e6f7220617070726f76656420666f7220616c6c000000000000000060648201526084016105a0565b6106d68383610f6d565b505050565b6106e6335b82610fdb565b6107025760405162461bcd60e51b81526004016105a0906124be565b6106d68383836110d2565b7f9f2df0fed2c77648de5860a4cc508cd0818c85b8b8a1ab4ceeef8d981c8956a66107388133611279565b610746600c80546001019055565b6000610751600c5490565b90506040518060e001604052808581526020018460008151811061077757610777612691565b602002602001015181526020018460018151811061079757610797612691565b60200260200101518152602001846002815181106107b7576107b7612691565b60200260200101518152602001846003815181106107d7576107d7612691565b60200260200101518152602001846004815181106107f7576107f7612691565b602002602001015181526020018460058151811061081757610817612691565b6020908102919091018101519091526000838152600e82526040902082518051919261084892849290910190611ee0565b506020820151600182015560408201516002820155606082015160038201556080820151600482015560a0820151600582015560c09091015160069091015561089185826112dd565b846001600160a01b03167f0f6798a560793a54c3bcfe86a93cde1e73087d944c0ea20544137d4121396885826040516108cc91815260200190565b60405180910390a25050505050565b6000828152600b60205260409020600101546108f78133611279565b6106d683836112f7565b600061090c83610d00565b821061096e5760405162461bcd60e51b815260206004820152602b60248201527f455243373231456e756d657261626c653a206f776e657220696e646578206f7560448201526a74206f6620626f756e647360a81b60648201526084016105a0565b506001600160a01b03919091166000908152600660209081526040808320938352929052205490565b6001600160a01b0381163314610a075760405162461bcd60e51b815260206004820152602f60248201527f416363657373436f6e74726f6c3a2063616e206f6e6c792072656e6f756e636560448201526e103937b632b9903337b91039b2b63360891b60648201526084016105a0565b610a11828261137d565b5050565b60606000806000806000806000600e60008a81526020019081526020016000206040518060e0016040529081600082018054610a50906125e5565b80601f0160208091040260200160405190810160405280929190818152602001828054610a7c906125e5565b8015610ac95780601f10610a9e57610100808354040283529160200191610ac9565b820191906000526020600020905b815481529060010190602001808311610aac57829003601f168201915b505050505081526020016001820154815260200160028201548152602001600382015481526020016004820154815260200160058201548152602001600682015481525050905080600001519750806020015196508060400151955080606001519450806080015193508060a0015192508060c00151915050919395979092949650565b6000610b598133611279565b610b616113e4565b50565b6106d683838360405180602001604052806000815250610de0565b610b88336106e0565b610bed5760405162461bcd60e51b815260206004820152603060248201527f4552433732314275726e61626c653a2063616c6c6572206973206e6f74206f7760448201526f1b995c881b9bdc88185c1c1c9bdd995960821b60648201526084016105a0565b610b6181611477565b6000610c0160085490565b8210610c645760405162461bcd60e51b815260206004820152602c60248201527f455243373231456e756d657261626c653a20676c6f62616c20696e646578206f60448201526b7574206f6620626f756e647360a01b60648201526084016105a0565b60088281548110610c7757610c77612691565b90600052602060002001549050919050565b6000818152600260205260408120546001600160a01b0316806104935760405162461bcd60e51b815260206004820152602960248201527f4552433732313a206f776e657220717565727920666f72206e6f6e657869737460448201526832b73a103a37b5b2b760b91b60648201526084016105a0565b60006001600160a01b038216610d6b5760405162461bcd60e51b815260206004820152602a60248201527f4552433732313a2062616c616e636520717565727920666f7220746865207a65604482015269726f206164647265737360b01b60648201526084016105a0565b506001600160a01b031660009081526003602052604090205490565b6000610d938133611279565b610b6161151e565b6000918252600b602090815260408084206001600160a01b0393909316845291905290205460ff1690565b6060600180546104a8906125e5565b610a11338383611599565b610dea3383610fdb565b610e065760405162461bcd60e51b81526004016105a0906124be565b610e1284848484611668565b50505050565b6000610e248133611279565b81516106d690600d906020850190611ee0565b6000818152600260205260409020546060906001600160a01b0316610eb65760405162461bcd60e51b815260206004820152602f60248201527f4552433732314d657461646174613a2055524920717565727920666f72206e6f60448201526e3732bc34b9ba32b73a103a37b5b2b760891b60648201526084016105a0565b6000610ec061169b565b90506000815111610ee05760405180602001604052806000815250610f0b565b80610eea846116aa565b604051602001610efb929190612334565b6040516020818303038152906040525b9392505050565b6000828152600b6020526040902060010154610f2e8133611279565b6106d6838361137d565b6000610f43600c5490565b905090565b60006001600160e01b03198216637965db0b60e01b14806104935750610493826117a8565b600081815260046020526040902080546001600160a01b0319166001600160a01b0384169081179091558190610fa282610c89565b6001600160a01b03167f8c5be1e5ebec7d5bd14f71427d1e84f3dd0314c0f7b2291e5b200ac8c7c3b92560405160405180910390a45050565b6000818152600260205260408120546001600160a01b03166110545760405162461bcd60e51b815260206004820152602c60248201527f4552433732313a206f70657261746f7220717565727920666f72206e6f6e657860448201526b34b9ba32b73a103a37b5b2b760a11b60648201526084016105a0565b600061105f83610c89565b9050806001600160a01b0316846001600160a01b0316148061109a5750836001600160a01b031661108f8461052b565b6001600160a01b0316145b806110ca57506001600160a01b0380821660009081526005602090815260408083209388168352929052205460ff165b949350505050565b826001600160a01b03166110e582610c89565b6001600160a01b0316146111495760405162461bcd60e51b815260206004820152602560248201527f4552433732313a207472616e736665722066726f6d20696e636f72726563742060448201526437bbb732b960d91b60648201526084016105a0565b6001600160a01b0382166111ab5760405162461bcd60e51b8152602060048201526024808201527f4552433732313a207472616e7366657220746f20746865207a65726f206164646044820152637265737360e01b60648201526084016105a0565b6111b68383836117cd565b6111c1600082610f6d565b6001600160a01b03831660009081526003602052604081208054600192906111ea90849061258b565b90915550506001600160a01b0382166000908152600360205260408120805460019290611218908490612540565b909155505060008181526002602052604080822080546001600160a01b0319166001600160a01b0386811691821790925591518493918716917fddf252ad1be2c89b69c2b068fc378daa952ba7f163c4a11628f55a4df523b3ef91a4505050565b6112838282610d9b565b610a115761129b816001600160a01b0316601461181e565b6112a683602061181e565b6040516020016112b7929190612363565b60408051601f198184030181529082905262461bcd60e51b82526105a091600401612415565b610a118282604051806020016040528060008152506119ba565b6113018282610d9b565b610a11576000828152600b602090815260408083206001600160a01b03851684529091529020805460ff191660011790556113393390565b6001600160a01b0316816001600160a01b0316837f2f8788117e7eff1d82e926ec794901d17c78024a50270940304540a733656f0d60405160405180910390a45050565b6113878282610d9b565b15610a11576000828152600b602090815260408083206001600160a01b0385168085529252808320805460ff1916905551339285917ff6391f5c32d9c69d2a47ea670b442974b53935d1edc7fd64eb21e047a839171b9190a45050565b600a5460ff1661142d5760405162461bcd60e51b815260206004820152601460248201527314185d5cd8589b194e881b9bdd081c185d5cd95960621b60448201526064016105a0565b600a805460ff191690557f5db9ee0a495bf2e6ff9c91a7834c1ba4fdd244a5e8aa4e537bd38aeae4b073aa335b6040516001600160a01b03909116815260200160405180910390a1565b600061148282610c89565b9050611490816000846117cd565b61149b600083610f6d565b6001600160a01b03811660009081526003602052604081208054600192906114c490849061258b565b909155505060008281526002602052604080822080546001600160a01b0319169055518391906001600160a01b038416907fddf252ad1be2c89b69c2b068fc378daa952ba7f163c4a11628f55a4df523b3ef908390a45050565b600a5460ff16156115645760405162461bcd60e51b815260206004820152601060248201526f14185d5cd8589b194e881c185d5cd95960821b60448201526064016105a0565b600a805460ff191660011790557f62e78cea01bee320cd4e420270b5ea74000d11b0c9f74754ebdbfc544b05a25861145a3390565b816001600160a01b0316836001600160a01b031614156115fb5760405162461bcd60e51b815260206004820152601960248201527f4552433732313a20617070726f766520746f2063616c6c65720000000000000060448201526064016105a0565b6001600160a01b03838116600081815260056020908152604080832094871680845294825291829020805460ff191686151590811790915591519182527f17307eab39ab6107e8899845ad3d59bd9653f200f220920489ca2b5937696c31910160405180910390a3505050565b6116738484846110d2565b61167f848484846119ed565b610e125760405162461bcd60e51b81526004016105a09061246c565b6060600d80546104a8906125e5565b6060816116ce5750506040805180820190915260018152600360fc1b602082015290565b8160005b81156116f857806116e281612620565b91506116f19050600a83612558565b91506116d2565b60008167ffffffffffffffff811115611713576117136126a7565b6040519080825280601f01601f19166020018201604052801561173d576020820181803683370190505b5090505b84156110ca5761175260018361258b565b915061175f600a8661263b565b61176a906030612540565b60f81b81838151811061177f5761177f612691565b60200101906001600160f81b031916908160001a9053506117a1600a86612558565b9450611741565b60006001600160e01b0319821663780e9d6360e01b1480610493575061049382611afa565b600a5460ff16156118135760405162461bcd60e51b815260206004820152601060248201526f14185d5cd8589b194e881c185d5cd95960821b60448201526064016105a0565b6106d6838383611b4a565b6060600061182d83600261256c565b611838906002612540565b67ffffffffffffffff811115611850576118506126a7565b6040519080825280601f01601f19166020018201604052801561187a576020820181803683370190505b509050600360fc1b8160008151811061189557611895612691565b60200101906001600160f81b031916908160001a905350600f60fb1b816001815181106118c4576118c4612691565b60200101906001600160f81b031916908160001a90535060006118e884600261256c565b6118f3906001612540565b90505b600181111561196b576f181899199a1a9b1b9c1cb0b131b232b360811b85600f166010811061192757611927612691565b1a60f81b82828151811061193d5761193d612691565b60200101906001600160f81b031916908160001a90535060049490941c93611964816125ce565b90506118f6565b508315610f0b5760405162461bcd60e51b815260206004820181905260248201527f537472696e67733a20686578206c656e67746820696e73756666696369656e7460448201526064016105a0565b6119c48383611c02565b6119d160008484846119ed565b6106d65760405162461bcd60e51b81526004016105a09061246c565b60006001600160a01b0384163b15611aef57604051630a85bd0160e11b81526001600160a01b0385169063150b7a0290611a319033908990889088906004016123d8565b602060405180830381600087803b158015611a4b57600080fd5b505af1925050508015611a7b575060408051601f3d908101601f19168201909252611a78918101906122b6565b60015b611ad5573d808015611aa9576040519150601f19603f3d011682016040523d82523d6000602084013e611aae565b606091505b508051611acd5760405162461bcd60e51b81526004016105a09061246c565b805181602001fd5b6001600160e01b031916630a85bd0160e11b1490506110ca565b506001949350505050565b60006001600160e01b031982166380ac58cd60e01b1480611b2b57506001600160e01b03198216635b5e139f60e01b145b8061049357506301ffc9a760e01b6001600160e01b0319831614610493565b6001600160a01b038316611ba557611ba081600880546000838152600960205260408120829055600182018355919091527ff3f7a9fe364faab93b216da50a3214154f22a0a2b415b23a84c8169e8b636ee30155565b611bc8565b816001600160a01b0316836001600160a01b031614611bc857611bc88382611d50565b6001600160a01b038216611bdf576106d681611ded565b826001600160a01b0316826001600160a01b0316146106d6576106d68282611e9c565b6001600160a01b038216611c585760405162461bcd60e51b815260206004820181905260248201527f4552433732313a206d696e7420746f20746865207a65726f206164647265737360448201526064016105a0565b6000818152600260205260409020546001600160a01b031615611cbd5760405162461bcd60e51b815260206004820152601c60248201527f4552433732313a20746f6b656e20616c7265616479206d696e7465640000000060448201526064016105a0565b611cc9600083836117cd565b6001600160a01b0382166000908152600360205260408120805460019290611cf2908490612540565b909155505060008181526002602052604080822080546001600160a01b0319166001600160a01b03861690811790915590518392907fddf252ad1be2c89b69c2b068fc378daa952ba7f163c4a11628f55a4df523b3ef908290a45050565b60006001611d5d84610d00565b611d67919061258b565b600083815260076020526040902054909150808214611dba576001600160a01b03841660009081526006602090815260408083208584528252808320548484528184208190558352600790915290208190555b5060009182526007602090815260408084208490556001600160a01b039094168352600681528383209183525290812055565b600854600090611dff9060019061258b565b60008381526009602052604081205460088054939450909284908110611e2757611e27612691565b906000526020600020015490508060088381548110611e4857611e48612691565b6000918252602080832090910192909255828152600990915260408082208490558582528120556008805480611e8057611e8061267b565b6001900381819060005260206000200160009055905550505050565b6000611ea783610d00565b6001600160a01b039093166000908152600660209081526040808320868452825280832085905593825260079052919091209190915550565b828054611eec906125e5565b90600052602060002090601f016020900481019282611f0e5760008555611f54565b82601f10611f2757805160ff1916838001178555611f54565b82800160010185558215611f54579182015b82811115611f54578251825591602001919060010190611f39565b50611f60929150611f64565b5090565b5b80821115611f605760008155600101611f65565b600067ffffffffffffffff831115611f9357611f936126a7565b611fa6601f8401601f191660200161250f565b9050828152838383011115611fba57600080fd5b828260208301376000602084830101529392505050565b80356001600160a01b0381168114611fe857600080fd5b919050565b600082601f830112611ffe57600080fd5b610f0b83833560208501611f79565b60006020828403121561201f57600080fd5b610f0b82611fd1565b6000806040838503121561203b57600080fd5b61204483611fd1565b915061205260208401611fd1565b90509250929050565b60008060006060848603121561207057600080fd5b61207984611fd1565b925061208760208501611fd1565b9150604084013590509250925092565b600080600080608085870312156120ad57600080fd5b6120b685611fd1565b93506120c460208601611fd1565b925060408501359150606085013567ffffffffffffffff8111156120e757600080fd5b8501601f810187136120f857600080fd5b61210787823560208401611f79565b91505092959194509250565b6000806040838503121561212657600080fd5b61212f83611fd1565b91506020830135801515811461214457600080fd5b809150509250929050565b60008060006060848603121561216457600080fd5b61216d84611fd1565b925060208085013567ffffffffffffffff8082111561218b57600080fd5b61219788838901611fed565b945060408701359150808211156121ad57600080fd5b818701915087601f8301126121c157600080fd5b8135818111156121d3576121d36126a7565b8060051b91506121e484830161250f565b8181528481019084860184860187018c10156121ff57600080fd5b600095505b83861015612222578035835260019590950194918601918601612204565b508096505050505050509250925092565b6000806040838503121561224657600080fd5b61224f83611fd1565b946020939093013593505050565b60006020828403121561226f57600080fd5b5035919050565b6000806040838503121561228957600080fd5b8235915061205260208401611fd1565b6000602082840312156122ab57600080fd5b8135610f0b816126bd565b6000602082840312156122c857600080fd5b8151610f0b816126bd565b6000602082840312156122e557600080fd5b813567ffffffffffffffff8111156122fc57600080fd5b6110ca84828501611fed565b600081518084526123208160208601602086016125a2565b601f01601f19169290920160200192915050565b600083516123468184602088016125a2565b83519083019061235a8183602088016125a2565b01949350505050565b7f416363657373436f6e74726f6c3a206163636f756e742000000000000000000081526000835161239b8160178501602088016125a2565b7001034b99036b4b9b9b4b733903937b6329607d1b60179184019182015283516123cc8160288401602088016125a2565b01602801949350505050565b6001600160a01b038581168252841660208201526040810183905260806060820181905260009061240b90830184612308565b9695505050505050565b602081526000610f0b6020830184612308565b60e08152600061243b60e083018a612308565b60208301989098525060408101959095526060850193909352608084019190915260a083015260c090910152919050565b60208082526032908201527f4552433732313a207472616e7366657220746f206e6f6e20455243373231526560408201527131b2b4bb32b91034b6b83632b6b2b73a32b960711b606082015260800190565b60208082526031908201527f4552433732313a207472616e736665722063616c6c6572206973206e6f74206f6040820152701ddb995c881b9bdc88185c1c1c9bdd9959607a1b606082015260800190565b604051601f8201601f1916810167ffffffffffffffff81118282101715612538576125386126a7565b604052919050565b600082198211156125535761255361264f565b500190565b60008261256757612567612665565b500490565b60008160001904831182151516156125865761258661264f565b500290565b60008282101561259d5761259d61264f565b500390565b60005b838110156125bd5781810151838201526020016125a5565b83811115610e125750506000910152565b6000816125dd576125dd61264f565b506000190190565b600181811c908216806125f957607f821691505b6020821081141561261a57634e487b7160e01b600052602260045260246000fd5b50919050565b60006000198214156126345761263461264f565b5060010190565b60008261264a5761264a612665565b500690565b634e487b7160e01b600052601160045260246000fd5b634e487b7160e01b600052601260045260246000fd5b634e487b7160e01b600052603160045260246000fd5b634e487b7160e01b600052603260045260246000fd5b634e487b7160e01b600052604160045260246000fd5b6001600160e01b031981168114610b6157600080fdfea2646970667358221220f980be9ca91b0ebfca2125a9dea99e7ae279165dd69cfca4299519c8cbf3460264736f6c63430008060033",
  "linkReferences": {},
  "deployedLinkReferences": {}
}